:0200000280007C
:1000000038C707204D0D0800450D0800450D0800B4
:10001000450D0800450D0800450D080000000000D2
:10002000000000000000000000000000F5110800C2
:10003000450D080000000000B9130800FD1308007A
:10004000450D0800450D0800450D0800450D080048
:10005000450D0800450D0800450D0800450D080038
:10006000450D0800450D080000000000A10908002A
:10007000B9090800D1090800E909080000000000DA
:100080000000000099620800450D0800450D0800B9
:10009000450D0800450D0800450D0800450D0800F8
:1000A000450D080000000000450D0800450D080042
:1000B000450D0800450D0800450D0800450D0800D8
:1000C000450D0800450D0800450D0800450D0800C8
:1000D000450D0800450D0800450D0800450D0800B8
:1000E000450D0800450D0800450D0800450D0800A8
:1000F000450D080010B5054C237833B9044B13B1F6
:100100000448AFF300800123237010BD380407209A
:10011000000000000868080008B5064B1BB106483F
:100120000649AFF300800648036813B1054B03B1DD
:10013000984708BD00000000086808003C0407203C
:10014000086808000000000080B582B000AF786049
:100150007B68072B2ED801A252F823F0B5010800C6
:100160007D010800850108008D0108009501080047
:100170009D010800A5010800AD01080000200F4BFB
:10018000984717E001200D4B984713E000200C4BD7
:1001900098470FE010200A4B98470BE02020084BAF
:1001A000984707E00020074B984703E00120054BE4
:1001B000984700BF0837BD4680BD00BF850A0800CC
:1001C000F50A0800950B080080B582B000AF786092
:1001D0007B68072B26D801A252F823F0FD01080006
:1001E00001020800010208001302080013020800BF
:1001F000130208001302080013020800012312E092
:100200000B4B98470346002B0CBF00230123DBB2A6
:1002100009E0084B98470346002B0CBF002301233D
:10022000DBB200E0002318460837BD4680BD00BFA2
:10023000C10A0800010C080080B483B000AF7860E8
:100240007B68072B25D801A252F823F06D02080025
:1002500073020800790208007F0208008302080088
:10026000870208008B0208008F0208004FF4FA434F
:1002700010E04FF400430DE04FF400430AE0084B58
:1002800008E0084B06E0084B04E0074B02E0064B91
:1002900000E0002318460C37BD465DF8047B70472C
:1002A00000093D0000127A00001BB70080B582B043
:1002B00000AF0346FB7100BFFB791846054B98471A
:1002C000034683F00103DBB2002BF5D10837BD46AE
:1002D00080BD00BFC901080080B586B000AFF860DE
:1002E0007A603B600B46FB727B68002B07D13B6852
:1002F000002B04D1FB684FF470021A6019E0FB7AFE
:1003000018460D4B984702467B68B2FBF3F37B61BE
:100310007B693A6802FB03F37B613B68013B1A048B
:10032000064B13407A68D2B2134343F47C52FB6805
:100330001A601837BD4680BD390208000000FF076B
:1003400080B582B000AF786039603B68002B08D17F
:10035000084B9847084B7A68126842F000529A623C
:1003600005E0054B7A68126842F48032DA6108379A
:10037000BD4680BD1D0C080000060E4080B582B051
:1003800000AF78607B68002B03D1054B984703468C
:1003900002E0044B9847034618460837BD4680BD27
:1003A000350C0800510C080080B582B000AF034640
:1003B000FB71FB79033B042B08D8FB791846054BEE
:1003C0009847FB791846044B984700E000BF083770
:1003D000BD4680BD49010800AD02080080B582B06D
:1003E00000AF786000BF7868044B98470346002B45
:1003F000F9D0002318460837BD4680BD7D030800AC
:1004000080B500AF0620044B984702461346DB0038
:100410009B1A5B00184680BD3902080080B500AF0A
:10042000024B984703465B08184680BD010408004C
:1004300090B583B000AF104B9847034618460F4B5A
:10044000984706200E4B98473B1D1846062101226F
:100450000E230C4CA0473B1D184600210A4B984721
:1004600000200A4B98471020094B984700BF094BC2
:1004700098470C37BD4690BD1D040800750F080055
:10048000A9030800D902080041030800DD030800A1
:10049000010A0800F50D080080B500AF1A4B4FF4B3
:1004A00000425A600D204FF04051184B98470D20E4
:1004B000174B98470C204FF06051144B98472D2054
:1004C0004FF06051114B98472C204FF060510F4B6B
:1004D000984787200F490D4B984737200E490B4B03
:1004E00098470A204FF00061084B98470B204FF0C7
:1004F0000061064B98478E204FF04051034B9847C0
:100500008E20064B984780BD501A0E40C107080048
:10051000F906080079000028590000282D07080076
:1005200080B485B000AFF860B9607A607B68002B5A
:1005300003D0FB68BA685A6602E0FB68BA681A66BC
:100540001437BD465DF8047B704700BF80B487B0A8
:1005500000AFF860B9607A60FB687A685A64BB687B
:10056000B3F1805F1FD0B3F1805F05D8002B27D097
:10057000B3F1006F0AD01FE0B3F1405F20D0B3F1B8
:10058000605F1DD0B3F1205F1AD015E0FB681B6FD0
:100590007B61FB681A6F7B68D9437B690B401A400B
:1005A000FB681A6708E0FB681B6F7B617A687B69F0
:1005B0001A43FB681A6700BFFB687A685A6000E05C
:1005C00000BF1C37BD465DF8047B704780B584B022
:1005D00000AFF860B9607A60F868B968184B98475E
:1005E0007B6803F00103F868B9681A46154B984711
:1005F0007B6803F00A03002B03D0FB68BA681A6219
:1006000002E0FB68BA685A627B6803F00203002BC1
:1006100004D0FB68BA68C3F8802008E07B6803F068
:100620000803002B03D0FB68BA68C3F88020FB687E
:10063000BA685A61FB68BA681A601037BD4680BD57
:10064000AD0608002105080080B584B000AFF86051
:10065000B9607A603B60F868B968124B9847F868EF
:10066000B968BA69104B98473B68002B03D0FB6808
:10067000BA681A6502E0FB68BA685A657B68002BA5
:1006800003D0FB68BA681A6302E0FB68BA685A6371
:10069000FB68BA681A61FB68BA681A601037BD4611
:1006A00080BD00BFAD0608002105080080B483B0FE
:1006B00000AF786039607B683A685A640C37BD4691
:1006C0005DF8047B704700BF80B483B000AF7860F2
:1006D0007B68DB6C18460C37BD465DF8047B7047C1
:1006E00080B483B000AF78607B689B6C18460C3791
:1006F000BD465DF8047B704780B485B000AF78607C
:100700007B685B0903F5001303F207735B02FB6070
:100710007B6803F01F03012202FA03F31A46FB6809
:100720001A631437BD465DF8047B704780B485B00A
:1007300000AF78607B685B0903F5001303F2077371
:100740005B02FB607B6803F01F03012202FA03F3E4
:100750001A46FB685A631437BD465DF8047B704740
:1007600080B485B000AF78607B685B0903F5001347
:1007700003F207735B02FB60FB689A6B7B6803F014
:100780001F03012101FA03F31340002B09D07B68FA
:1007900003F01F03012202FA03F31A46FB685A63AF
:1007A00008E07B6803F01F03012202FA03F31A46F4
:1007B000FB681A631437BD465DF8047B704700BFC1
:1007C00090B587B002AF786039607B685B0903F54C
:1007D000001303F207735B02FB603B6803F0F04316
:1007E000B3F1205F48D0B3F1205F06D8B3F1006FBA
:1007F0000AD0B3F1805F23D070E0B3F1405F47D0FF
:10080000B3F1605F44D069E07B6803F01F0301220D
:1008100002FA03F3F8684FF000611A46334B984729
:100820007B6803F01F03012202FA03F31A463B68B8
:1008300003F00103F86811461A462D4B98474FE024
:100840007B6803F01F03012202FA03F3F8684FF0FC
:1008500080511A46254B98477B6803F01F030122FD
:1008600002FA03F31A463B6803F00103F8681146E5
:100870001A461F4B984733E07B6803F01F030122A1
:1008800002FA03F3F86819463A681A4B984727E0CA
:100890007B6803F01F03012202FA03F319463B6849
:1008A00003F06053B3F1605F14BF00230123DBB298
:1008B0001A463B6803F00403002B0CBF00230123FE
:1008C000DBB2386800F0010000280CBF00200120D6
:1008D000C0B20090F868084CA04701E0002300E097
:1008E000012318461437BD4690BD00BF4D050800D2
:1008F00021050800CD0508004906080080B584B030
:1009000000AF786039607868224B9847F860786863
:10091000214B98470346FA681340FB60FB68002BA5
:1009200035D00023BB602FE01C4ABB681B01134479
:100930001A683B689A4224D1184ABB681B011344C9
:100940005A68FB681340002B1BD0144ABB681B017C
:10095000134408335B681149BA6812010A441168EC
:100960000E48BA6812010244526808461146984778
:100970000A4ABB681B0113445B68DB43FA681340F7
:10098000FB60BB680133BB60FB68002BCCD1103728
:10099000BD4680BDC9060800E106080054040720D2
:1009A00080B500AF02480B21024B984780BD00BFC5
:1009B000000E0E40FD08080080B500AF02480C2173
:1009C000024B984780BD00BF00100E40FD08080094
:1009D00080B500AF02480D21024B984780BD00BF93
:1009E00000120E40FD08080080B500AF02480E213D
:1009F000024B984780BD00BF00140E40FD08080060
:100A000080B485B000AF78601D4B1D4A126B22F098
:100A100070017A680A431A634FF40063FB6007E0D1
:100A2000FB68002B01D1012323E0FB68013BFB6045
:100A3000134B9B6E03F00803002BF1D0104B104AB0
:100A4000126B22F0030242F002021A634FF40063B9
:100A5000FB6007E0FB68002B01D1012309E0FB6884
:100A6000013BFB60064B9B6E03F00803002BF1D0AB
:100A7000002318461437BD465DF8047B704700BF5D
:100A800000060E4080B483B000AF78607B68012B15
:100A900007D10A4A094B9B6843F0254343F480136E
:100AA0009360064A054B1B6843F0254343F0080357
:100AB00013600C37BD465DF8047B7047101A0E407A
:100AC00080B400AF094B5B6903F08003002B07D0B3
:100AD000074B9B6E03F08003002B01D0012300E045
:100AE00000231846BD465DF8047B7047101A0E407F
:100AF00000060E4080B485B000AF78600023FB6034
:100B0000214B1B6A03F00103002B0ED01E4A1E4B23
:100B10001B6A23F45C1323F0780379680B4343F4D6
:100B20005C1343F0080313620BE00123FB60164AD9
:100B3000154B196A154B0B4079681943144B0B433D
:100B4000136200BF104B9B6E03F40033002BF9D0EF
:100B50000D4A0D4B1B6A23F09B7323F4803343F43F
:100B60005C131362FB68002B09D0074A064B1B6A13
:100B700023F45C1323F0010343F45C131362143772
:100B8000BD465DF8047B704700060E4086C0C8FF76
:100B9000093F370080B483B000AF78607B68002BDA
:100BA00008D01249114B1B6A114A1A40114B1343CA
:100BB0000B6216E00D490D4B1B6A0F4A1A400F4B92
:100BC00013430B6200BF094B9B6E03F00103002B24
:100BD000F9D0064A054B1B6A43F09B7343F48033FC
:100BE00013620C37BD465DF8047B704700060E406B
:100BF000FCFFC8FE02003701FCC0C8FF013F370000
:100C000080B400AF044B9B6E03F480331846BD469E
:100C10005DF8047B704700BF00060E4080B400AF53
:100C2000034B4FF000529A62BD465DF8047B70475B
:100C300000060E4080B400AF044B9B6E03F002032D
:100C40001846BD465DF8047B704700BF00060E40A5
:100C500080B400AF044B9B6E03F040031846BD46C2
:100C60005DF8047B704700BF00060E4080B483B07F
:100C700000AF786039607B683A68DA600C37BD464F
:100C80005DF8047B704700BF80B483B000AF78602C
:100C90007B681B6918460C37BD465DF8047B7047BE
:100CA00080B483B000AF78607B685B6918460C370E
:100CB000BD465DF8047B704780B485B000AF7860B6
:100CC00039604FF47A73FB6006E0FB685A1EFA60E5
:100CD000002B01D101230BE07B685B6903F0020369
:100CE000002BF2D03B68C3F308027B68DA61002373
:100CF00018461437BD465DF8047B704780B485B054
:100D000000AF786039604FF47A73FB6006E0FB68EF
:100D10005A1EFA60002B01D101230CE07B685B694D
:100D200003F00103002BF2D07B689B69C3F3080238
:100D30003B681A60002318461437BD465DF8047BF3
:100D4000704700BF80B400AFFEE700BF80B582B03F
:100D500000AF1E4B7B601E4B3B607A683B689A423B
:100D60000CD007E03B681A1D3A607A68111D796063
:100D700012681A603A68174B9A42F3D3164B3B60DD
:100D800004E03B681A1D3A6000221A603A68134B6F
:100D90009A42F6D3124B7B60124A7B6823F0604381
:100DA00023F07F0393607B68B3F1005F09D37A6817
:100DB0000D4B9A4205D80B4B0A4A926842F00052FA
:100DC0009A600A4B98470A4B9847FEE70868080064
:100DD00000000720380407203804072038A7072020
:100DE0000000080000ED00E0FFFF0F20696308002D
:100DF000895F080080B400AF564B1B6B03F0030300
:100E0000032B00F28A8001A151F823F01D0E080087
:100E10003D0E08008D0E08008D0E08004E4B5B69DC
:100E200003F08003002B04D04C4B4FF400421A60B7
:100E300073E04A4B4FF4FA421A606EE0454B1B6A6E
:100E400003F08073002B03D0444B454A1A601CE02A
:100E5000424B444A1A603F4B1B6A03F07003102B4D
:100E600004D0202B08D0002B0ED00EE03B4B1B688B
:100E70005A003A4B1A6008E0384B1A6813465B0078
:100E80001A44364B1A6000E000BF46E0314B1B6A43
:100E900003F08073002B03D0304B314A1A601CE002
:100EA0002E4B304A1A602B4B1B6A03F07003102B39
:100EB00004D0202B08D0002B0ED00EE0274B1B684F
:100EC0005A00264B1A6008E0244B1A6813465B0050
:100ED0001A44224B1A6000E000BF1E4B1B6B03F04C
:100EE0000303022B15D11B4B9A6A1F4B13401B0C9B
:100EF00001331A4A126802FB03F2184B1A60174BAF
:100F00001A68144B9B6ADBB2B2FBF3F2134B1A6004
:100F100002E0124B154A1A6000BF0E4B1B6B03F028
:100F20007003702B08D10D4B1A68114BA3FB0213F1
:100F30005A080A4B1A6009E0084B1A68054B1B6BEC
:100F400003F070031B09DA40044B1A60BD465DF8DC
:100F5000047B704700060E40101A0E400000072068
:100F6000001BB70000093D000000FF07001C4E0EEB
:100F7000ABAAAAAA80B483B000AF78607A681F4B8E
:100F80009A4206D81E4B00221A601E4B00221A609D
:100F90002EE07A681C4B9A4208D8194B4FF48072A5
:100FA0001A60184B4FF480721A6021E07A68174B70
:100FB0009A4208D8124B4FF400721A60114B4FF44A
:100FC00000721A6014E07A68114B9A4208D80C4BF0
:100FD0004FF440721A600B4B4FF440721A6007E0F6
:100FE000074B4FF480621A60064B4FF480621A6020
:100FF0000C37BD465DF8047B704700BF9F52570118
:10100000000A0E40000C0E407FCC06023FB72803BA
:101010007F2FA60480B483B000AF78607B6803F1B3
:1010200008027B685A607B684FF0FF329A607B68E9
:1010300003F108027B68DA607B6803F108027B68D1
:101040001A617B6800221A600C37BD465DF8047B8C
:10105000704700BF80B483B000AF78607B68002227
:101060001A610C37BD465DF8047B704780B485B0CB
:1010700000AF786039607B685B68FB603B68FA684A
:101080005A60FB689A683B689A60FB689B683A689C
:101090005A60FB683A689A603B687A681A617B68B4
:1010A0001B685A1C7B681A601437BD465DF8047BC8
:1010B000704700BF80B485B000AF786039603B688E
:1010C0001B68BB60BB68B3F1FF3F03D17B681B6942
:1010D000FB600CE07B680833FB6002E0FB685B6848
:1010E000FB60FB685B681A68BB689A42F6D9FB68CC
:1010F0005A683B685A603B685B683A689A603B682C
:10110000FA689A60FB683A685A603B687A681A61C4
:101110007B681B685A1C7B681A601437BD465DF8F3
:10112000047B704780B485B000AF78607B681B6932
:10113000FB607B685B687A6892689A607B689B68F2
:101140007A6852685A60FB685A687B689A4203D191
:101150007B689A68FB685A607B6800221A61FB68AA
:101160001B685A1EFB681A60FB681B681846143718
:10117000BD465DF8047B704780B485B000AFF86071
:10118000B9607A60FB68043BFB60FB684FF08072DB
:101190001A60FB68043BFB60BA68FB681A60FB6876
:1011A000043BFB60094AFB681A60FB68143BFB6068
:1011B0007A68FB681A60FB68203BFB60FB68184696
:1011C0001437BD465DF8047B704700BFD11108009D
:1011D00080B500AF054B1B68B3F1FF3F02D0044B55
:1011E0009847FEE7024B9847FEE700BF0400072040
:1011F0009D130800074B19680868B0E8F00F80F3EA
:101200000988BFF36F8F4FF0000080F311884EF014
:101210000D0E7047E4A4072006480068006880F3BC
:10122000088862B661B6BFF34F8FBFF36F8F00DFE0
:1012300000BF000008ED00E080B584B000AF284B8F
:10124000FB60FB681B78DBB2BB60FB68FF221A7097
:10125000FB681B78DBB2FB71FB79DBB223F05F0329
:10126000DAB2204B1A70204B07221A6009E01E4B9D
:101270001B685A1E1C4B1A60FB79DBB25B00DBB2A9
:10128000FB71FB79DBB2DBB25BB2002BEFDB164B01
:101290001B681A02144B1A60134B1B6803F4E062BC
:1012A000114B1A60BB68DAB2FB681A700F4B0F4A19
:1012B000126842F470021A600C4B0C4A126842F039
:1012C00070421A600A4B98470A4B00221A600A4B78
:1012D00098470A4B9847002318461037BD4680BDF3
:1012E00000E400E0C4040720C804072020ED00E06B
:1012F000311408000400072019120800D111080059
:1013000080B400AF054B4FF080521A60BFF34F8F8F
:10131000BFF36F8FBD465DF8047B704704ED00E0BE
:1013200080B500AF0C4B98470C4B1B685A1C0B4BFD
:101330001A60BFF34F8FBFF36F8F084B1B68012BF1
:1013400008D1074B1B6803F01F03002B02D0024B90
:101350009847FEE780BD00BF9D13080004000720EA
:1013600004ED00E080B500AF094B1B68002B02D1F3
:10137000084B9847FEE7064B1B685A1E044B1A6041
:10138000034B1B68002B02D10020034B984780BD04
:10139000040007209D130800B1130800EFF311802B
:1013A0004FF0A00181F3118870470023184600BF59
:1013B00080F31188704700BFEFF30980BFF36F8F90
:1013C0000D4B1A6820E9F00F10602DE908404FF02E
:1013D000A00080F3118801F02BFD4FF0000080F396
:1013E0001188BDE8084019680868B0E8F00F80F37C
:1013F0000988BFF36F8F7047E4A4072080B500AF62
:10140000074B9847074B98470346002B03D0064BE2
:101410004FF080521A600020044B984780BD00BFF7
:101420009D130800B52C080004ED00E0B11308007E
:1014300080B400AF074B084A1168084AA2FB0102BA
:101440009209013A1A60064B07221A60BD465DF800
:10145000047B704714E000E000000720D34D6210C9
:1014600010E000E080B582B000AFEFF305837B6051
:101470007B680F2B0CD90D4A7B6813441B78FB70DB
:101480000B4B1B78FA789A4202D20A4B9847FEE738
:10149000094B1B6803F4E062084B1B689A4202D9AF
:1014A000044B9847FEE70837BD4680BDF0E300E0F7
:1014B000C40407209D1308000CED00E0C8040720B9
:1014C00080B586B000AF78600023FB604F4B984733
:1014D0004F4B1B68002B01D14E4B98474E4B1A685F
:1014E0007B681340002B7DD17B68002B15D008232F
:1014F0007A6813447B607B6803F00703002B0CD0F1
:101500007B6823F0070308337B607B6803F00703E5
:10151000002B02D0414B9847FEE77B68002B61D03F
:101520003F4B1B687A689A425CD83E4B3B613D4B0F
:101530001B687B6104E07B693B617B691B687B61A5
:101540007B695A687B689A4203D27B691B68002BCF
:10155000F1D12F4B1B687A699A4243D03B691A68D4
:1015600008231344FB607B691A683B691A607B6936
:101570005A687B68D21A08235B009A4217D97A69A5
:101580007B681344BB60BB6803F00703002B02D0E9
:10159000224B9847FEE77B695A687B68D21ABB6882
:1015A0005A607B697A685A60B8681F4B98471C4B31
:1015B0001A687B695B68D21A194B1A60184B1A6853
:1015C0001A4B1B689A4203D2154B1A68174B1A60C4
:1015D0007B695A68104B1B681A437B695A607B69A8
:1015E00000221A60124B9847FB68002B01D1114B67
:1015F0009847FB6803F00703002B02D0074B98477E
:10160000FEE7FB6818461837BD4680BD312B080041
:10161000D4A40720DD160800E0A407209D130800CD
:10162000D8A40720CCA40720A1170800DCA4072019
:101630004D2B0800D95F080080B584B000AF7860FA
:101640007B68FB607B68002B38D008235B42FA681C
:101650001344FB60FB68BB60BB685A68194B1B688E
:101660001340002B02D1184B9847FEE7BB681B685C
:10167000002B02D0144B9847FEE7BB685A68114B09
:101680001B681340002B19D0BB681B68002B15D1B9
:10169000BB685A680B4B1B68DB431A40BB685A6037
:1016A0000A4B9847BB685A68094B1B681A44084B99
:1016B0001A60B868074B9847074B98471037BD46E4
:1016C00080BD00BFE0A407209D130800312B080057
:1016D000D8A40720A11708004D2B080080B485B0BE
:1016E00000AF4FF42043BB60274BFB60FB6803F067
:1016F0000703002B0CD0FB680733FB60FB6823F06B
:101700000703FB60BA68FB68D21A1F4B1344BB6027
:10171000FB687B601D4B7A681A601C4B00225A6084
:101720007A68BB681344FB600823FA68D31AFB602D
:10173000FB6823F00703FB60FA68154B1A60144B33
:101740001B6800225A60124B1B6800221A607B68DB
:101750003B603B68FA68D21A3B685A600C4B1A68C7
:101760003B681A603B685A680A4B1A603B685A68C3
:10177000094B1A60094B4FF000421A601437BD46FE
:101780005DF8047B704700BFCC040720CCA4072081
:10179000D4A40720DCA40720D8A40720E0A40720B5
:1017A00080B485B000AF7860274BFB6002E0FB6837
:1017B0001B68FB60FB681A687B689A42F7D3FB687A
:1017C000BB60FB685B68BA681A447B689A4208D1C0
:1017D000FB685A687B685B681A44FB685A60FB6860
:1017E0007B607B68BB607B685B68BA681A44FB6897
:1017F0001B689A4218D1FB681A68144B1B689A42FE
:101800000DD07B685A68FB681B685B681A447B686C
:101810005A60FB681B681A687B681A6008E00B4B0B
:101820001A687B681A6003E0FB681A687B681A60B4
:10183000FA687B689A4202D0FB687A681A601437AB
:10184000BD465DF8047B7047CCA40720D4A40720D4
:1018500080B584B000AF786039607B68FB60FB685E
:10186000002B02D1264B9847FEE7264B9847FB6892
:101870001A68FB68DB6BF968096C01FB03F31A4417
:10188000FB685A60FB6800229A63FB681A68FB6871
:101890009A60FB681A68FB68DB6B013BF968096CAE
:1018A00001FB03F31A44FB68DA60FB684FF0FF3278
:1018B0005A64FB684FF0FF329A643B68002B0ED1EC
:1018C000FB681B69002B14D0FB68103318460E4BC5
:1018D00098470346012B0CD10C4B984709E0FB6855
:1018E000103318460A4B9847FB6824331846084BB8
:1018F0009847084B9847012318461037BD4680BDCE
:101900009D130800211308004D3008000113080042
:10191000151008006513080080B588B000AFF860A6
:10192000B9601346FB710023FB61FB68002B26D0D6
:101930004C20184B9847B861BB69002B1FD0FB683F
:10194000BA6802FB03F301337B617869114B984756
:101950000246BB691A60BB691B68002B0CD0BB69CF
:10196000FA68DA63BB69BA681A64B86901210A4B7C
:101970009847BB69FB6102E0B869084B9847FB696F
:10198000002B02D1064B9847FEE7FB69184620372B
:10199000BD4680BDC1140800511808003916080062
:1019A0009D13080090B585B000AF0346FB714C2035
:1019B0001E4B9847F860FB68002B2CD0FB68002278
:1019C0005A60FB6800221A60FB6800229A60FB687C
:1019D0000022DA60FB6800229A63FB680122DA6366
:1019E000FB6800221A64FB684FF0FF325A64FB6800
:1019F0004FF0FF329A64FB68103318460C4B98473F
:101A0000FB68243318460A4B9847F86800210022E7
:101A10000023084CA047FB68002B02D1064B9847D7
:101A2000FEE7FB6818461437BD4690BDC114080098
:101A300015100800691B08009D13080090B585B0BB
:101A400000AF78607B68BB60BB68002B02D1114B94
:101A50009847FEE7BB685C680F4B984703469C427B
:101A600011D1BB68DB685A1EBB68DA60BB68DB68F3
:101A7000002B05D1B868002100220023074CA047A5
:101A80000123FB6001E00023FB60FB68184614376C
:101A9000BD4690BD9D13080025350800691B080050
:101AA00090B585B000AF786039607B68BB60BB687B
:101AB000002B02D1124B9847FEE7BB685C68114BC4
:101AC000984703469C4207D1BB68DB685A1CBB6839
:101AD000DA600123FB600EE0B86800213A68002359
:101AE000094CA047F860FB68012B04D1BB68DB6898
:101AF0005A1CBB68DA60FB6818461437BD4690BDB7
:101B00009D13080025350800291E080080B584B003
:101B100000AF786039607B68002B02D1104B98478A
:101B2000FEE73A687B689A4202D90D4B9847FEE778
:101B30007868002102220B4B9847F860FB68002B65
:101B400002D0FB683A689A63FB68002B02D1044B11
:101B50009847FEE7FB6818461037BD4680BD00BFBA
:101B60009D1308001919080080B58AB000AFF8600D
:101B7000B9607A603B6000237B62FB683B623B6A32
:101B8000002B02D15B4B9847FEE7BB68002B03D1CB
:101B90003B6A1B6C002B01D1012300E00023002BCA
:101BA00002D1544B9847FEE73B68022B03D13B6AB6
:101BB000DB6B012B01D1012300E00023002B02D1BC
:101BC0004C4B9847FEE74C4B98470346002B02D1FD
:101BD0007B68002B01D1012300E00023002B02D100
:101BE000444B9847FEE7454B98473B6A9A6B3B6AE4
:101BF000DB6B9A4202D33B68022B1DD1386AB9686D
:101C00003A683F4B9847F8613B6A5B6A002B0AD001
:101C10003B6A243318463B4B98470346012B07D1B8
:101C2000394B984704E0FB69002B01D0364B9847AD
:101C3000364B9847012359E07B68002B03D1334B87
:101C40009847002352E07B6A002B06D107F114036A
:101C500018462F4B984701237B622C4B98472D4BFE
:101C60009847264B98473B6A5B6CB3F1FF3F02D124
:101C70003B6A00225A643B6A9B6CB3F1FF3F02D17E
:101C80003B6A00229A64214B984707F114023B1DDE
:101C900010461946204B98470346002B1ED1386A40
:101CA0001E4B98470346002B12D03B6A03F11002EB
:101CB0007B68104619461A4B9847386A194B984763
:101CC000194B98470346002B0FD10F4B98470CE058
:101CD000386A144B9847144B984784E7386A114B7D
:101CE0009847114B9847002300E07CE718462837B7
:101CF000BD4680BD9D13080045350800211308002E
:101D0000252108004D300800011308006513080064
:101D10000D310800312B080045310800352308003B
:101D20002D2F0800592208004D2B080080B588B0DF
:101D300000AFF860B9607A603B60FB68BB61BB696B
:101D4000002B02D1334B9847FEE7BB68002B03D131
:101D5000BB691B6C002B01D1012300E00023002B89
:101D600002D12C4B9847FEE73B68022B03D1BB699D
:101D7000DB6B012B01D1012300E00023002B02D1FA
:101D8000244B9847FEE7244B9847224B98477861AD
:101D9000BB699A6BBB69DB6B9A4202D33B68022B2F
:101DA0002DD1B869B9683A681C4B98470346002B97
:101DB00005D07B68002B02D07B6801221A60BB69CA
:101DC0009B6CB3F1FF3F12D1BB695B6A002B13D050
:101DD000BB6924331846124B98470346002B0BD09F
:101DE0007B68002B08D07B6801221A6004E0BB6985
:101DF0009B6C5A1CBB699A640123FB6101E00023C0
:101E0000FB617869074B9847FB6918462037BD4648
:101E100080BD00BF9D13080065140800252108003F
:101E20004D300800B113080080B58AB000AFF860EB
:101E3000B9607A603B6000237B62FB683B623B6A6F
:101E4000002B02D1674B9847FEE7BB68002B03D1FC
:101E50003B6A1B6C002B01D1012300E00023002B07
:101E600002D1604B9847FEE75F4B98470346002B33
:101E700002D17B68002B01D1012300E00023002B5D
:101E800002D1584B9847FEE7584B98473B6A9B6BEB
:101E9000002B3BD03B6ADB68FB61386AB968544B66
:101EA00098473B68002B1CD13B6A9B6B5A1E3B6AD0
:101EB0009A633B6A1B68002B04D14E4B984702463D
:101EC0003B6A5A603B6A1B69002B1BD03B6A10338C
:101ED0001846494B98470346012B13D1474B984767
:101EE00010E03B6AFA69DA603B6A5B6A002B09D052
:101EF0003B6A24331846404B98470346002B01D0D9
:101F00003E4B98473E4B9847012366E07B68002B89
:101F100003D13B4B984700235FE07B6A002B06D13F
:101F200007F114031846374B984701237B62344B63
:101F30009847354B98472D4B98473B6A5B6CB3F1FC
:101F4000FF3F02D13B6A00225A643B6A9B6CB3F1AB
:101F5000FF3F02D13B6A00229A64294B984707F160
:101F600014023B1D10461946284B98470346002B88
:101F70002BD1386A264B98470346002B1FD03B6A6B
:101F80001B68002B08D1194B98473B6A5B681846C1
:101F9000204B98471A4B98473B6A03F124027B6811
:101FA000104619461C4B9847386A1C4B98471C4BE7
:101FB00098470346002B0FD1104B98470CE0386A26
:101FC000164B9847164B98475EE7386A134B98476D
:101FD000134B9847002300E056E718462837BD46C4
:101FE00080BD00BF9D13080045350800211308007F
:101FF00009220800593708004D3008000113080075
:10200000651308000D310800312B08004531080028
:1020100001230800813508002D2F080059220800EF
:102020004D2B080080B588B000AFF860B9607A60C9
:10203000FB68BB61BB69002B02D1274B9847FEE7C9
:10204000BB68002B03D1BB691B6C002B01D10123A2
:1020500000E00023002B02D11F4B9847FEE71F4BE7
:1020600098471D4B98477861BB699B6B002B28D024
:10207000B869B9681A4B9847BB699B6B5A1EBB6914
:102080009A63BB695B6CB3F1FF3F12D1BB691B69FB
:10209000002B13D0BB6910331846124B98470346E8
:1020A000002B0BD07B68002B08D07B6801221A60C4
:1020B00004E0BB695B6C5A1CBB695A640123FB6179
:1020C00001E00023FB617869074B9847FB691846DC
:1020D0002037BD4680BD00BF9D1308006514080071
:1020E000092208004D300800B113080080B584B003
:1020F00000AF78607B68002B02D1074B9847FEE762
:10210000064B98477B689B6BFB60054B9847FB68C9
:1021100018461037BD4680BD9D13080021130800E6
:102120006513080080B586B000AFF860B9607A60CA
:1021300000237B61FB681B6C002B0DD1FB681B68C7
:10214000002B52D1FB685B6818462D4B984778618D
:10215000FB6800225A6048E07B68002B1AD1FB68BC
:102160009A68FB681B6C1046B9681A46254B98475D
:10217000FB689A68FB681B6C1A44FB689A60FB68F2
:102180009A68FB685B689A422FD3FB681A68FB6801
:102190009A602AE0FB68DA68FB681B6C1046B96835
:1021A0001A46184B9847FB68DA68FB681B6C5B4261
:1021B0001A44FB68DA60FB68DA68FB681B689A42BD
:1021C00007D2FB685A68FB681B6C5B421A44FB68C9
:1021D000DA607B68022B08D1FB689B6B002B04D074
:1021E000FB689B6B5A1EFB689A63FB689B6B5A1CCF
:1021F000FB689A637B6918461837BD4680BD00BFEF
:10220000753608002164080080B582B000AF7860A0
:1022100039607B681B6C002B19D07B68DA687B689F
:102220001B6C1A447B68DA607B68DA687B685B68E1
:102230009A4203D37B681A687B68DA607B68DA6845
:102240007B681B6C386811461A46024B9847083762
:10225000BD4680BD2164080080B582B000AF7860C3
:10226000234B984714E07B685B6A002B0AD07B689D
:10227000243318461F4B98470346002B03D01E4BB0
:10228000984700E008E07B689B6C5A1E7B689A6464
:102290007B689B6C002BE6DC7B684FF0FF329A6416
:1022A000164B9847124B984714E07B681B69002B2C
:1022B0000FD07B68103318460E4B98470346002B0F
:1022C00001D00D4B98477B685B6C5A1E7B685A6443
:1022D00000E003E07B685B6C002BE6DC7B684FF082
:1022E000FF325A64054B98470837BD4680BD00BF92
:1022F000211308004D300800F5310800651308006F
:1023000080B584B000AF7860084B98477B689B6BC2
:10231000002B02D10123FB6001E00023FB60044B92
:102320009847FB6818461037BD4680BD211308004A
:102330006513080080B584B000AF7860094B9847FA
:102340007B689A6B7B68DB6B9A4202D10123FB604E
:1023500001E00023FB60044B9847FB6818461037E8
:10236000BD4680BD211308006513080080B584B008
:1023700000AF786039607B68FB60124B9847FB6860
:102380005B6CB3F1FF3F02D1FB6800225A64FB682B
:102390009B6CB3F1FF3F02D1FB6800229A640A4BA9
:1023A0009847FB689B6B002B05D1FB6824331846CC
:1023B0003968064B9847F868054B98471037BD4673
:1023C00080BD00BF2113080065130800CD2F080051
:1023D0005922080090B58BB002AFF860B9603B603D
:1023E0001346FB80FB68002B02D14B4B9847FEE75E
:1023F0003B6B042B02D9484B9847FEE7FB881846F5
:10240000B96B464B9847B861BB69002B6DD0BB696F
:102410001A6BFB8803F18043013B9B0013447B61F3
:102420007B6923F007037B617B6903F00703002BC3
:1024300002D0394B9847FEE7FB880093B869B9682A
:102440003A6BFB6B364CA0477869F9683A68354BB4
:1024500098470246BB691A607B6B002B02D07B6BEE
:10246000BA691A60304B9847304B1B685A1C2F4B87
:102470001A602F4B1B68002B09D12D4BBA691A60CB
:102480002A4B1B68012B0FD12A4B98470CE02A4B93
:102490001B68002B08D1264B1B68DA6A3B6B9A42FB
:1024A00002D8234BBA691A60244B1B685A1C234B71
:1024B0001A60BB69DB6A01229A40214B1B681A43F0
:1024C0001F4B1A60BB69DA6A13469B0013449B00DA
:1024D0001C4A1A44BB690433104619461A4B9847E4
:1024E0000123FB61194B984702E04FF0FF33FB617A
:1024F000FB69012B0BD1104B1B68002B07D00C4B39
:102500001B68DA6A3B6B9A4201D2114B9847FB6910
:1025100018462437BD4690BD9D1308004934080075
:10252000353208007911080021130800BCA50720E6
:10253000E4A40720CD320800C8A50720D8A50720AD
:10254000C4A50720E8A407206D1008006513080043
:102550000113080080B584B000AF78602F4B984716
:102560007B68002B02D12E4B1B6800E07B68FB6070
:10257000FB68043318462B4B98470346002B15D1B4
:10258000FB68DA6A284913469B0013449B000B44FE
:102590001B68002B0AD1FB68DB6A012202FA03F3F5
:1025A000DA43224B1B681A40204B1A60FB689B6A77
:1025B000002B04D0FB68183318461A4B9847FB6869
:1025C00004331B4819461B4B98471B4B1B685A1C6E
:1025D000194B1A60194B1B685A1C184B1A60184B80
:1025E0009847184B1B68002B14D00D4B1B68FA68DA
:1025F0009A4209D1144B1B68002B02D0134B984709
:10260000FEE7134B984705E0044B9847114B98475A
:102610000B4B98471037BD4680BD00BF2113080003
:10262000E4A4072025110800E8A40720C4A507207A
:1026300090A507206D100800A4A50720D8A50720A5
:1026400065130800C8A50720DCA507209D13080016
:1026500001130800DD34080080B584B000AF786055
:102660000023FB607B68002B28D0184B1B68002BD5
:1026700002D0174B9847FEE7164B9847164B1A683F
:102680007B681344BB60154B1B6804331846144B1E
:1026900098470346002B0BD1104B1B68DB6A0122C5
:1026A00002FA03F3DA430F4B1B681A400D4B1A6012
:1026B000B8680D4B98470D4B9847F860FB68002BA6
:1026C00001D10B4B98471037BD4680BDDCA50720D4
:1026D0009D130800312B0800C0A50720E4A40720A3
:1026E00025110800C4A50720D93308004D2B080088
:1026F0000113080080B584B000AF7860094B98479B
:102700007B68002B02D1084B1B6800E07B68FB60F4
:10271000FB68DB6ABB60054B9847BB6818461037FF
:10272000BD4680BD21130800E4A4072065130800FE
:1027300080B586B000AF7860396000237B613B686C
:10274000042B02D9464B9847FEE73B68042B01D97E
:1027500004233B60434B98477B68002B02D1424BDC
:102760001B6800E07B683B613B691B6CFB60FA689F
:102770003B689A426ED03A68FB689A420DD93A4B50
:102780001B683A699A420FD0374B1B68DA6A3B687C
:102790009A4209D801237B6106E0334B1B683A69F2
:1027A0009A4201D101237B613B69DB6ABB603B69D3
:1027B0001A6C3B69DB6A9A4202D13B693A68DA6279
:1027C0003B693A681A643B699B69002B04DB3B68F0
:1027D000C3F105023B699A613B695969BA681346BE
:1027E0009B0013449B00214A1344994201D10123C9
:1027F00000E00023002B28D03B69043318461C4B13
:1028000098470346002B09D1BB68012202FA03F363
:10281000DA43184B1B681A40164B1A603B69DB6A97
:1028200001229A40134B1B681A43124B1A603B69F2
:10283000DA6A13469B0013449B000C4A1A443B6916
:102840000433104619460C4B98477B69012B01D184
:102850000A4B98470A4B98471837BD4680BD00BFC2
:102860009D13080021130800E4A40720E8A4072012
:1028700025110800C4A507206D10080001130800E9
:102880006513080080B584B000AF7860324B98477C
:102890007B68002B02D1314B1B6800E07B68FB603A
:1028A000FB68043318462E4B98470346002B15D17E
:1028B000FB68DA6A2B4913469B0013449B000B44C8
:1028C0001B68002B0AD1FB68DB6A012202FA03F3C2
:1028D000DA43254B1B681A40234B1A60FB689B6A3E
:1028E000002B04D0FB68183318461D4B9847FB6833
:1028F00004331E4819461E4B98471E4B9847174BEA
:102900001B68FA689A421AD11B4B1B68002B09D02E
:102910001A4B1B68002B02D0194B9847FEE7194B46
:10292000984716E0114B1A68174B1B689A4203D15F
:102930000A4B00221A600CE0144B984709E00E4B3A
:102940001B68002B05D0044B9847114B9847094B47
:1029500098471037BD4680BD21130800E4A4072026
:1029600025110800E8A40720C4A50720A8A5072072
:102970006D10080065130800C8A50720DCA5072016
:102980009D13080001130800BCA50720312E080084
:10299000DD34080080B584B000AF78600023FB60B0
:1029A0007B68BB607B68002B02D1114B9847FEE728
:1029B000BB685A690F4B9A4201D1012300E0002302
:1029C000002B0FD0BB689A6A0B4B9A420AD0BB68A7
:1029D0009B6A002B01D1012300E00023002B01D0D2
:1029E0000123FB60FB6818461037BD4680BD00BF61
:1029F0009D130800A8A507207CA5072080B584B0FA
:102A000000AF78607B68FB607B68002B02D11E4BB7
:102A10009847FEE7FB68002B33D01C4B1B68FA6815
:102A20009A422ED01A4B9847F8681A4B984703469B
:102A3000012B24D1FB6804331846174B9847FB68D9
:102A4000DB6A01229A40154B1B681A43134B1A602C
:102A5000FB68DA6A13469B0013449B00104A1A4431
:102A6000FB680433104619460E4B9847FB68DA6A38
:102A7000064B1B68DB6A9A4201D30B4B98470B4B02
:102A800098471037BD4680BD9D130800E4A4072079
:102A9000211308009529080025110800C4A5072066
:102AA000E8A407206D100800011308006513080052
:102AB00090B587B004AF0023009300230193002357
:102AC0000293002303931248124982220023124CDE
:102AD000A04778607B68012B02D1104B9847786043
:102AE0007B68012B0AD10E4B98470E4B01221A60CE
:102AF0000D4B00221A600D4B984705E07B68002BB8
:102B000002D1074B9847FEE70C37BD4690BD00BF8A
:102B10000D32080098660800D523080081370800A8
:102B20009D130800C8A50720C0A50720391208007A
:102B300080B400AF044B1B685A1C034B1A60BD469F
:102B40005DF8047B704700BFDCA5072080B582B02C
:102B500000AF00237B60374B1B68002B02D1364B44
:102B60009847FEE7354B9847324B1B685A1E314B4E
:102B70001A60304B1B68002B55D1314B1B68002B62
:102B800051D02EE02F4BDB68DB683B603B6818338D
:102B900018462D4B98473B68043318462A4B9847F4
:102BA0003B68DB6A01229A40284B1B681A43274B7B
:102BB0001A603B68DA6A13469B0013449B00244A60
:102BC0001A443B68043310461946224B98473B6829
:102BD000DA6A214B1B68DB6A9A4202D31F4B01223F
:102BE0001A60184B1B68002BCCD11D4B1B68002BA7
:102BF00011D00CE01B4B98470346002B02D0174B1B
:102C000001221A60164B1B685A1E154B1A60144B92
:102C10001B68002BEED1114B1B68012B03D1012344
:102C20007B60114B9847114B98477B6818460837D3
:102C3000BD4680BDDCA507209D13080021130800B8
:102C4000BCA507207CA5072025110800C4A50720E6
:102C5000E8A407206D100800E4A40720D0A50720F1
:102C6000CCA50720B52C0800011308006513080047
:102C700080B582B000AF064B9847064B1B687B605F
:102C8000054B98477B6818460837BD4680BD00BF96
:102C900021130800C0A507206513080080B400AF09
:102CA000034B1B681846BD465DF8047B704700BFA8
:102CB000BCA5072080B586B000AF00237B614D4BDB
:102CC0001B68002B40F086804B4B1B685A1C4A4BFC
:102CD0001A60494B1B683B613B69002B18D1474B7D
:102CE0001B681B68002B02D0454B9847FEE7434BFF
:102CF0001B68FB60434B1A68404B1A60414BFA68F3
:102D00001A60414B1B685A1C3F4B1A603F4B984757
:102D10003F4B1B683A699A424DD3384B1B681B687E
:102D2000002B01D1012300E00023002B04D0384BFD
:102D30004FF0FF321A603EE0304B1B68DB68DB6807
:102D4000BB60BB685B687B603A697B689A4203D270
:102D50002F4B7A681A602EE0BB68043318462D4B5F
:102D60009847BB689B6A002B04D0BB681833184691
:102D7000284B9847BB68DB6A01229A40264B1B68A8
:102D80001A43254B1A60BB68DA6A13469B0013444A
:102D90009B00224A1A44BB68043310461946204B54
:102DA0009847BB68DA6A1F4B1B68DB6A9A4201D3FB
:102DB00001237B61B1E71B4B1B68DA6A1749134695
:102DC0009B0013449B000B441B68012B07D9012374
:102DD0007B6104E0144B1B685A1C134B1A60134BA5
:102DE0001B68002B01D001237B617B6918461837D3
:102DF000BD4680BDDCA50720C0A5072074A507201F
:102E00009D13080078A50720D4A50720DD3408000D
:102E10000800072025110800C4A50720E8A4072002
:102E20006D100800E4A40720CCA50720D0A507203A
:102E300080B584B000AF344B1B68002B03D0334BFC
:102E400001221A605CE0314B00221A60304B1B6893
:102E50001A682F4B1B681B6B9A4208D82C4B1A68B8
:102E60002B4B1B683433104619462A4B9847284B86
:102E70001B681B6B184628491422284B98470346A9
:102E8000002B08D0224B1A68214B1B6834331046A4
:102E90001946204B9847224B1B687B607B68B3FA2E
:102EA00083F3FB70FB78C3F11F03FB601D49FA68D5
:102EB00013469B0013449B000B441B68002B02D15C
:102EC000194B9847FEE7FA6813469B0013449B0092
:102ED000144A1344BB60BB685B685A68BB685A609D
:102EE000BB685A68BB6808339A4204D1BB685B6808
:102EF0005A68BB685A60BB685B68DA68044B1A6042
:102F00001037BD4680BD00BFDCA50720D0A5072037
:102F1000E4A40720E95F0800A0660800B963080080
:102F2000C4A50720E8A407209D13080080B584B03D
:102F300000AF786039607B68002B02D11A4B98474C
:102F4000FEE71A4B1B68183378681946184B9847E8
:102F5000164B1B6804331846164B98470346002B44
:102F60000BD1124B1B68DB6A012202FA03F3DA432E
:102F7000114B1B681A40104B1A603B68B3F1FF3FBE
:102F800007D10A4B1B6804330C4819460C4B984771
:102F900007E00C4B1A683B681344FB60F8680A4B67
:102FA00098471037BD4680BD9D130800E4A4072054
:102FB000B510080025110800C4A50720A8A5072002
:102FC0006D100800C0A50720D933080080B584B073
:102FD00000AF786039607B68002B02D1144B9847B2
:102FE000FEE7144B1B68183378681946124B984754
:102FF000104B1B6804331846104B98470346002BB0
:103000000BD10C4B1B68DB6A012202FA03F3DA4393
:103010000B4B1B681A400A4B1A600A4B1A683B6834
:103020001344FB60F868084B98471037BD4680BDD5
:103030009D130800E4A407206D1008002511080066
:10304000C4A50720C0A50720D933080080B584B0E7
:1030500000AF78607B68DB68DB68BB60BB68002B17
:1030600002D1214B9847FEE7BB68183318461F4B27
:1030700098471F4B1B68002B1CD1BB6804331846B4
:103080001A4B9847BB68DB6A01229A40194B1B68B0
:103090001A43184B1A60BB68DA6A13469B00134444
:1030A0009B00154A1A44BB68043310461946134B5B
:1030B000984705E0BB681833114819460F4B9847ED
:1030C000BB68DA6A0F4B1B68DB6A9A4205D9012399
:1030D000FB600D4B01221A6001E00023FB60FB68DE
:1030E00018461037BD4680BD9D1308002511080005
:1030F000DCA50720C4A50720E8A407206D10080060
:103100007CA50720E4A40720D0A5072080B582B0C5
:1031100000AF78607B68002B02D1074B9847FEE731
:10312000064B1A687B681A60054B1A687B685A6000
:103130000837BD4680BD00BF9D130800D4A50720F9
:10314000C0A5072080B584B000AF786039607B6887
:10315000002B02D1214B9847FEE73B68002B02D1A0
:103160001E4B9847FEE71E4B98471E4B1B68BB60E3
:103170003B681B68B3F1FF3F02D10023FB6026E0F0
:103180007B681A68184B1B689A4207D07B685A689C
:10319000BB689A4202D80123FB6018E07B685B6839
:1031A000BA68D21A3B681B689A420ED23B681A680A
:1031B0007B685968BB68CB1A1A443B681A60786808
:1031C0000A4B98470023FB6001E00123FB60084B9A
:1031D0009847FB6818461037BD4680BD9D13080010
:1031E00021130800C0A50720D4A507200D31080031
:1031F0006513080080B400AF034B01221A60BD467E
:103200005DF8047B704700BFD0A5072080B582B071
:1032100000AF7860044B9847044B1B68012B01D921
:10322000034B9847F6E700BF4D330800E8A407209A
:103230000113080080B586B000AFF860B9607A600D
:103240003B6000237B6112E0BA687B6913441A7803
:10325000F9687B690B4430331A71BA687B6913448F
:103260001B78002B00D105E07B6901337B617B6912
:10327000092BE9D9FB68002283F83D207B68042BE9
:1032800001D904237B60FB687A68DA62FB687A689C
:103290001A64FB6800225A64FB68043318460A4B20
:1032A0009847FB6818331846074B9847FB68FA683D
:1032B0001A617B68C3F10502FB689A61FB68FA68D2
:1032C0005A621837BD4680BD5510080080B582B0DF
:1032D00000AF00237B600CE07A6813469B00134428
:1032E0009B00114A13441846104B98477B680133E2
:1032F0007B607B68042BEFD90D480C4B98470D4839
:103300000A4B98470C48094B98470C48074B98477D
:103310000B48064B98470B4B054A1A600A4B054A67
:103320001A600837BD4680BDE8A4072015100800C4
:103330004CA5072060A507207CA5072090A50720A5
:10334000A8A5072074A5072078A5072080B582B01E
:1033500000AF28E0174B9847174B1B68002B14BF92
:1033600000230123DBB27B60144B98477B68002B62
:1033700019D1134B9847104BDB68DB683B603B6807
:10338000043318460F4B98470F4B1B685A1E0E4BC1
:103390001A600E4B1B685A1E0C4B1A600C4B984758
:1033A00038680C4B9847094B1B68002BD2D1083763
:1033B000BD4680BD312B080090A507204D2B08008D
:1033C0002113080025110800BCA50720A4A507208B
:1033D00065130800B934080080B582B000AF78608A
:1033E000134B1B687A685A60124B1B687A689A42C2
:1033F00009D2114B1A680E4B1B680433104619464C
:103400000E4B984710E00E4B1A68094B1B680433AB
:1034100010461946094B98470A4B1B687A689A422E
:1034200002D2084B7A681A600837BD4680BD00BFDB
:10343000E4A40720C0A5072078A50720B510080040
:1034400074A507200800072080B584B000AF0346AC
:103450003960FB804820154B9847F860FB68002BCB
:103460001FD03B68002B06D1FB889B0018460F4BF2
:103470009847034600E03B68FA681363FB681B6BE0
:10348000002B05D1F8680A4B98470023FB6008E041
:10349000FB681A6BFB889B001046A5211A46054B5A
:1034A0009847FB6818461037BD4680BDC114080018
:1034B000391608000D65080080B582B000AF78604D
:1034C0007B681B6B1846044B98477868024B9847FB
:1034D0000837BD4680BD00BF3916080080B483B0F0
:1034E00000AF0E4B1B681B68002B01D1012300E0CD
:1034F0000023002B04D00A4B4FF0FF321A6008E083
:10350000064B1B68DB68DB687B607B685A68044B92
:103510001A600C37BD465DF8047B704774A5072020
:103520000800072080B483B000AF054B1B687B60A8
:103530007B6818460C37BD465DF8047B704700BFBA
:10354000E4A4072080B483B000AF0B4B1B68002BB2
:1035500002D101237B6008E0084B1B68002B02D1DD
:1035600002237B6001E000237B607B6818460C37F8
:10357000BD465DF8047B7047C8A50720DCA5072081
:1035800080B584B000AF78607B68FB607B68002BFF
:1035900062D0FB68DA6A324B1B68DB6A9A425BD204
:1035A000FB689B69002B06DB2D4B1B68DB6AC3F1B4
:1035B0000502FB689A61FB685969FB68DA6A134681
:1035C0009B0013449B00274A1344994201D10123D5
:1035D00000E00023002B3AD0FB6804331846224B4E
:1035E00098470346002B15D1FB68DA6A1D4913463C
:1035F0009B0013449B000B441B68002B0AD1FB6803
:10360000DB6A012202FA03F3DA43184B1B681A4003
:10361000164B1A60124B1B68DA6AFB68DA62FB68A9
:10362000DB6A01229A40114B1B681A430F4B1A6048
:10363000FB68DA6A13469B0013449B00094A1A444C
:10364000FB68043310461946094B984704E0044BC5
:103650001B68DA6AFB68DA621037BD4680BD00BFBE
:10366000E4A40720E8A4072025110800C4A507202A
:103670006D10080080B584B000AF78607B68BB60D7
:103680000023FB607B68002B56D0BB685B6C002B73
:1036900002D12C4B9847FEE7BB685B6C5A1EBB6897
:1036A0005A64BB68DA6ABB681B6C9A4244D0BB6838
:1036B0005B6C002B40D1BB6804331846224B984703
:1036C0000346002B15D1BB68DA6A204913469B00DC
:1036D00013449B000B441B68002B0AD1BB68DB6AB8
:1036E000012202FA03F3DA43194B1B681A40184B04
:1036F0001A60BB681A6CBB68DA62BB68DB6AC3F12C
:103700000502BB689A61BB68DB6A01229A40104BD4
:103710001B681A430E4B1A60BB68DA6A13469B009B
:1037200013449B00094A1A44BB68043310461946E7
:10373000084B98470123FB60FB6818461037BD46CD
:1037400080BD00BF9D13080025110800E8A40720D4
:10375000C4A507206D10080080B400AF074B1B689C
:10376000002B04D0054B1B685A6C01325A64034B82
:103770001B681846BD465DF8047B7047E4A407202B
:1037800090B587B004AF00237B60104B9847104B77
:103790001B68002B0FD0022300930023019300230A
:1037A0000293002303930B480B494FF482720023CA
:1037B0000A4CA04778607B68002B02D1084B9847E1
:1037C000FEE77B6818460C37BD4690BD313D0800CA
:1037D00010A6072079390800B4660800D523080030
:1037E0009D13080080B586B000AFF860B9607A60BC
:1037F0003B60BB68002B02D100237B611CE02820CA
:10380000134B984778617B69002B15D0114B984773
:103810007B69FA681A607B69BA689A617B697A6821
:10382000DA617B693A681A627B693A6A5A627B6933
:1038300004331846084B9847BB68002B02D1074B4E
:103840009847FEE77B6918461837BD4680BD00BF24
:10385000C1140800313D0800551008009D130800F0
:1038600090B589B000AFF860B9607A603B60002322
:10387000FB611D4B1B68002B30D0BB683B617B6834
:103880007B61FB68BB61BB68052B1CDC174B984751
:103890000346022B0BD1144B1A6807F11003104694
:1038A00019463A6B0023124CA047F86116E00E4B04
:1038B0001A6807F1100310461946002200230C4C29
:1038C000A047F8610AE0084B1A6807F11003104698
:1038D00019463A680023074CA047F861FB6918466F
:1038E0002437BD4690BD00BF10A60720453508000F
:1038F000691B08002D1D080090B587B002AF7860E5
:103900003960184B1B68DB68DB68FB60FB680433BD
:103910001846154B9847FB68DB69012B1BD1FB68E8
:103920009A697B681344F86819463A687B680F4CBB
:10393000A0470346012B0ED100230093F868002115
:103940007A6800230A4CA047B860BB68002B02D1FC
:10395000084B9847FEE7FB685B6AF868984714379E
:10396000BD4690BD08A6072025110800BD3A0800F5
:10397000613808009D13080080B584B000AF7860FE
:1039800007F108031846054B9847F860BB68F868CC
:103990001946034B9847034B9847F1E72D3A080027
:1039A000A9390800453B080080B584B000AF7860B5
:1039B0003960174B984707F108031846154B98478D
:1039C000F860BB68002B1ED13B68002B0AD17A68D7
:1039D000FB689A4206D8104B98477868F9680F4BF5
:1039E000984712E00E4B1A687968FB68CB1A1046AC
:1039F00019460C4B9847084B98470346002B04D1B7
:103A0000094B984701E0044B98471037BD4680BDED
:103A1000312B0800753A08004D2B0800F9380800D2
:103A200010A607206D2308000113080080B485B09C
:103A300000AF78600E4B1B681B68002B14BF00237F
:103A40000123DBB21A467B681A607B681B68002B77
:103A500005D1074B1B68DB681B68FB6001E0002396
:103A6000FB60FB6818461437BD465DF8047B704761
:103A700008A6072080B584B000AF78600C4B98474B
:103A8000F8600C4B1B68FA689A4205D20A4B9847BB
:103A90007B6801221A6002E07B6800221A60054BF5
:103AA000FA681A60FB6818461037BD4680BD00BF33
:103AB000712C080014A60720713C080080B586B060
:103AC00000AFF860B9607A603B6000237B61FB68FF
:103AD000BA685A60FB68FA681A61BA687B689A42E9
:103AE00012D87A683B68D21AFB689B699A4202D363
:103AF00001237B611BE0104B1A68FB6804331046FE
:103B000019460E4B984712E07A683B689A4206D2F3
:103B1000BA683B689A4202D301237B6107E0084BF5
:103B20001A68FB68043310461946044B98477B69B2
:103B300018461837BD4680BD0CA60720B5100800F2
:103B400008A6072090B58BB002AF70E0BB68002BD1
:103B50006DDB3B69FB61FB695B69002B04D0FB6992
:103B6000043318463A4B98473B1D1846394B984743
:103B7000B861BB68092B59D801A252F823F000BFE5
:103B8000A93B0800A93B0800A93B08002D3C080000
:103B9000FB3B0800253C0800A93B0800A93B0800A6
:103BA0002D3C0800FB3B0800FA68FB699B691A443E
:103BB000FB68F8691146BA69274CA0470346012BF8
:103BC0001AD1FB695B6AF8699847FB69DB69012BCD
:103BD00012D1FA68FB699B69134400220092F869CC
:103BE00000211A4600231D4CA04778617B69002BF9
:103BF00002D11B4B9847FEE719E0FA68FB699A610E
:103C0000FB699B69002B02D1154B9847FEE7FB69C6
:103C10009A69BB691344F8691946BA69BB690E4CC5
:103C2000A04704E0F8690F4B984700E000BF0E4B37
:103C30001A6807F1080310461946002200230B4CAE
:103C4000A0470346002B81D12437BD4690BD00BF5D
:103C500025110800753A0800BD3A080061380800CF
:103C60009D1308003916080010A60720291E080019
:103C700090B589B002AF3DE0274B1B68DB681B683D
:103C80007B61254B1B68DB68DB683B613B69043368
:103C90001846224B98473B695B6A386998473B69ED
:103CA000DB69012B26D13B699A697B691344FB6070
:103CB000FA687B699A420ED93B69FA685A603B6997
:103CC0003A691A61144B1A683B6904331046194665
:103CD000134B98470EE000230093386900217A695E
:103CE0000023104CA047B860BB68002B02D10E4BDC
:103CF0009847FEE7084B1B681B68002BBCD1064B9E
:103D00001B687B60094B1A68034B1A60074B7A6883
:103D10001A601C37BD4690BD08A607202511080073
:103D2000B5100800613808009D1308000CA6072094
:103D300080B500AF114B9847114B1B68002B1AD16F
:103D40001048114B984711480F4B9847104B0D4A9C
:103D50001A60104B0D4A1A6005200C2100220E4BF0
:103D600098470246064B1A60054B1B68002B02D190
:103D70000A4B9847FEE70A4B984780BD211308007D
:103D800010A60720E0A5072015100800F4A50720BD
:103D900008A607200CA60720191908009D13080083
:103DA0006513080080B485B000AF78607B68FB6065
:103DB000FB681B6A18461437BD465DF8047B7047E4
:103DC00090B591B004AF78600123FB620523BB621C
:103DD0004FF47A737B6200233B620C205A4B984766
:103DE000F861F86A02210022584B98470246FB69A5
:103DF0001A60FB697A6A5A60FB69554A9A600C201E
:103E0000514B9847B861FB691A68BB691A60BB6976
:103E10003A6A5A60BB694F4A9A607B6800930023F4
:103E2000019300230293002303934B484B498222C2
:103E3000FB694B4CA0470023009300230193002310
:103E4000029300230393474847498222BB69444CAD
:103E5000A0470C203C4B98477861F86A0221002269
:103E60003A4B984702467B691A607B693A6A5A6006
:103E70007B693E4A9A600C20334B984738617B69D6
:103E80001A683B691A603B697A6A5A603B69384A2A
:103E90009A600023009300230193002302930023E0
:103EA00003932D48334982227B692D4CA0477B68C0
:103EB00000930023019300230293002303932948D6
:103EC0002D4982223B69264CA0470C201E4B984767
:103ED000F860B86A022100221C4B98470246FB6832
:103EE0001A60FB687A6A5A60FB68244A9A600C2060
:103EF000154B9847B860FB681A68BB681A60BB68C6
:103F00007A6A5A60BB681E4A9A60002300930023B5
:103F1000019300230293002303931248194982223C
:103F2000FB680F4CA047002300930023019300235C
:103F3000029300230393084813498222BB68084C6C
:103F4000A0473437BD4690BDC114080019190800B8
:103F500018A6072020A60720ED3F0800BC66080031
:103F6000D52308008D3F0800C466080022A607205C
:103F70001AA60720CC660800D466080024A60720ED
:103F80001CA60720DC660800E466080090B587B030
:103F900000AF78600023FB810023FB827B683B61DC
:103FA0003B6919683B695B6807F10E0208461146D8
:103FB0001A4600230C4CA0470346012B02D00123D4
:103FC000FB82EDE7B7F91630002B07D13B699A6801
:103FD00013889BB29BB201339BB21380FB890133E0
:103FE0009BB2FB81DCE700BF691B080090B587B07E
:103FF00000AF78600023FB820023BB827B683B61BB
:104000003B6919683B695B6807F10E020846114677
:104010001A4600230F4CA0470346012B18D1FB89F9
:10402000FA8A9A4204D0FB89FB820123BB820FE00B
:10403000B7F91430002B07D13B699A6813889BB2FB
:104040009BB201339BB21380FB8A0133FB82D7E71B
:10405000D6E700BF291E080080B483B000AF01235B
:104060007B6000233B6032E01E4B3A6833F812302D
:104070009AB21D4B396833F8113012B21BB29A4212
:1040800001D100237B60174B3A6833F8123099B2A4
:10409000154B3A6823F81210144B3A6833F8123073
:1040A0009AB2134B396833F8113012B21BB29A42EC
:1040B00001D100237B600D4B3A6833F8123099B27E
:1040C0000B4B3A6823F812103B6801333B603B68A6
:1040D000022BC9DD7B6818460C37BD465DF8047BB2
:1040E000704700BF18A6072028A6072020A6072093
:1040F00030A6072090B585B004AF0520042100222A
:10410000114B98470246114B1A600223009300237B
:10411000019300230293002303930D480D4982224B
:1041200000230D4CA047012300930C4B0193002367
:104130000293002303930A480A4982220023064C73
:10414000A0470437BD4690BD1919080038A60720BE
:1041500069410800EC660800D52308003CA607204A
:104160009D440800F466080090B589B000AF7860FF
:1041700000233B6130E03B690A2202FA03F3FB6152
:104180008A4B9847B8618A4B1A6807F10C031046AE
:104190001946FA690023874CA0470346002B02D03A
:1041A000854B01221A60814B98470246BB69D31A9E
:1041B0007B617A69FB699A4202D27F4B01221A60C5
:1041C000FB6903F10F027B699A4202D27A4B01220A
:1041D0001A603B6901333B613B69042BCBDD002353
:1041E0003B6112E0724B1A6807F110031046194642
:1041F00000220023714CA0470346012B02D06E4BD6
:1042000001221A603B6901333B613B69042BE9DD04
:1042100000233B6130E03B690A2202FA03F3FB61B1
:10422000624B9847B861624B1A6807F11003104659
:104230001946FA690023614CA0470346002B02D0BF
:104240005D4B01221A60594B98470246BB69D31A4D
:104250007B617A69FB699A4202D2574B01221A604C
:10426000FB6903F10F027B699A4202D2524B012291
:104270001A603B6901333B613B69042BCBDD504B3A
:1042800000221A604F4B1B6818464F4B984702E0BC
:1042900014204E4B98474A4B1B68552BF8D11420DD
:1042A0004A4B9847464B00221A6000233B613CE092
:1042B0003F4B1A6807F10C031046194600220023F1
:1042C0003C4CA0470346012B02D03B4B01221A6015
:1042D000374B1A6807F110031046194600220023D5
:1042E000364CA0470346012B02D0334B01221A6003
:1042F000334B1B68552B02D12F4B01221A60314BD7
:104300001B6818460421324B98472D4B1B68552BD0
:1043100002D1294B01221A602A4B1B681846012141
:104320002B4B98473B6901333B613B69042BBFDD55
:1043300002E01420254B9847214B1B68552BF8D1E0
:104340001420224B98471E4B00221A6000233B6129
:1043500012E0174B1A6807F10C03104619460022A9
:104360000023144CA0470346012B02D0124B01221C
:104370001A603B6901333B613B69042BE9DD114B5A
:104380001B681846104B984702E014200F4B9847C3
:104390000B4B1B68552BF8D114200C4B9847084B3E
:1043A00000221A6000233B6151E000BF712C08001D
:1043B00038A60720291E080048A60720691B080008
:1043C0004CA607203CA60720FD2908005926080016
:1043D00031270800284B1A6807F1100310461946C8
:1043E00000220023254CA0470346012B02D0244B7A
:1043F00001221A60204B1A6807F10C031046194677
:10440000002200231F4CA0470346012B02D01C4B67
:1044100001221A601C4B1B68552B02D1184B01223C
:104420001A601A4B1B6818460421194B9847164B03
:104430001B68552B02D1124B01221A60134B1B68CB
:1044400018460121124B98473B6901333B613B6998
:10445000042BBFDD02E014200E4B98470A4B1B686B
:10446000552BF8D114200B4B98470B4B1B685A1C4B
:10447000094B1A607CE600BF38A60720691B0800BC
:1044800048A60720291E08004CA607203CA60720A6
:10449000312708005926080040A6072090B587B0AC
:1044A00000AF78600020314B9847314B98477861D6
:1044B0000023FB602F4B55221A602F4B1A6807F11F
:1044C0000C0310461946AF2200232C4CA04703468C
:1044D000002B02D02A4B01221A60254B9847024636
:1044E0007B69D31A3B613B69AE2B02D8244B012276
:1044F0001A603B69BE2B02D9214B01221A601D4B69
:1045000055221A600020194B9847194B984778613B
:10451000184B55221A60184B1A6807F10C03104605
:104520001946AF220023174CA0470346002B02D0A8
:10453000134B01221A600E4B984702467B69D31A2F
:104540003B613B69AE2B02D80D4B01221A603B69DF
:10455000BE2B02D90A4B01221A60064B55221A6063
:10456000094B1B685A1C084B1A609BE785280800FA
:10457000712C08004CA6072038A60720691B0800EC
:1045800048A60720291E080044A6072080B483B04F
:1045900000AF01237B60124B1A68124B1B689A42D2
:1045A00001D100237B60104B1A68104B1B689A42A4
:1045B00001D100237B600E4B1B68012B01D100232E
:1045C0007B60094B1A68094B1A60054B1A68054B4A
:1045D0001A607B6818460C37BD465DF8047B70474F
:1045E00040A6072050A6072044A6072054A607206F
:1045F00048A6072080B483B000AF094B1B68002B8E
:1046000002D100237B6001E001237B60044B002288
:104610001A607B6818460C37BD465DF8047B70470E
:1046200058A6072090B585B004AFC820C8211F4BFD
:10463000984702461E4B1A601D4BAA225A601C4B1B
:1046400000229A60C8200021184B98470246184B58
:10465000DA60174B00221A61154B00225A61144B85
:104660001B68002B03D1124BDB68002B1BD00023EF
:1046700000930023019300230293002303930D482A
:104680000D4982220A4B0D4CA047002300930023C2
:1046900001930023029300230393064808498222D2
:1046A000084B064CA0470437BD4690BD0D1B0800C3
:1046B00060A60720C9470800FC660800D52308004B
:1046C000046708006CA6072090B585B000AF78603D
:1046D00039607868002100220023184CA047034667
:1046E000012B02D1164B01221A600023FB6013E05C
:1046F0007868002100220023124CA0470346012BBA
:1047000002D00F4B01221A603B681B685A1C3B68A1
:104710001A60FB680133FB60FB68C72BE8D9786837
:10472000002100220023074CA0470346012B02D1A1
:10473000034B01221A601437BD4690BD691B080067
:104740005CA60720291E080090B585B000AF7860F0
:1047500039607868002100220023184CA0470346E6
:10476000012B02D1164B01221A600023FB6013E0DB
:104770007868002100220023124CA0470346012B39
:1047800002D00F4B01221A603B681B685A1C3B6821
:104790001A60FB680133FB60FB68C72BE8D97868B7
:1047A000002100220023074CA0470346012B02D121
:1047B000034B01221A601437BD4690BD291E080024
:1047C0005CA60720691B080090B585B000AF786033
:1047D0007B68FB60FB685B68AA2B07D1FB681A68E3
:1047E000FB68083310461946104B9847FB681B6856
:1047F00018460021002200230D4CA0470346012B40
:1048000002D10C4B01221A60FB681A68FB6808335E
:1048100010461946084B9847FB681A68FB6808332E
:1048200010461946014B9847EEE700BFC9460800FD
:10483000291E08005CA607204947080090B589B0EA
:1048400004AF78600420134B9847F860FB687A68DF
:104850001A607B68009300230193002302930023D6
:1048600003930D480D49BE22FB680D4CA0470D4B2C
:10487000984702460C4B1A600B4B1B685A1C0A4B9C
:104880001A60094B1B685A1C074B1A601437BD4647
:1048900090BD00BFC1140800094908000C6708005A
:1048A000D52308009D2C08007CA6072080B586B083
:1048B00000AF7860C8233B617B68002B03D07B6826
:1048C0001B687B6101E000237B610223FB605923AD
:1048D000BB60BB68FA6802FB03F3BB603869084B36
:1048E00098477B69002B09D00020054B98477869D1
:1048F000044B98470020034B9847E6E7E5E700BFE5
:10490000592608005525080090B589B004AF786095
:104910004FF47A73FB607B681B68BB607868164B4A
:104920009847F868154B9847154B00221A60BB68EA
:104930000093134B01930023029300230393114828
:10494000114982220023114CA047BB680093002329
:10495000019300230293002303930A480C49822207
:10496000074B0A4CA0470B4B1B889BB201339AB2F2
:10497000084B1A80D5E700BF3916080059260800F1
:1049800030A70720AD48080014670800D5230800A9
:104990001C67080078A6072080B582B000AF01230D
:1049A0007B60164B1A88164B1B889BB29A4202D129
:1049B00000237B6004E0124B1B889AB20F4B1A80D5
:1049C000104B98470246104B1A600F4B1A680F4B5A
:1049D0001B689A4202D200237B6009E00A4B1A68E6
:1049E0000A4B1B68D21A03239A4201D900237B6029
:1049F0007B6818460837BD4680BD00BF0C00072005
:104A000078A607209D2C080080A607207CA60720FA
:104A100090B585B004AF012004210022264B9847B1
:104A20000246264B1A6000230093254B0193002376
:104A3000029300230393234823498222234B244CCF
:104A4000A04701230093234B0193002302930023EB
:104A500003932148214982221C4B1D4CA04700236F
:104A600000930023019300230293002303931C4827
:104A70001C4982220023164CA047002300930023E8
:104A800001930023029300230393174817498222BE
:104A900000230F4CA0470023009300230193002321
:104AA0000293002303931248124982220023084CE8
:104AB000A0470437BD4690BD1919080034A7072048
:104AC00084A607202D4B0800246708008CA6072029
:104AD000D523080088A60720F94A08002C6708009B
:104AE000994B080034670800714C08003C670800C7
:104AF000CD4C08004467080080B584B000AF7860F2
:104B00007B68FB600020084B9847FB681B685A1CB9
:104B1000FB681A60FB681B68FE2B03D90020024B60
:104B20009847F2E7F1E700BF8528080080B584B018
:104B300000AF78607B68FB600020144B9847B8603A
:104B4000BB68013300201946114B984700200F4BDA
:104B500098470246BB6801339A4202D00D4B9847F2
:104B6000FEE7FB681B685A1CFB681A600020B968E6
:104B7000074B98470020054B98470246BB689A426E
:104B800002D0044B9847FEE7DAE700BFF52608009D
:104B9000312708009D13080080B584B000AF78600D
:104BA0000023BB81274B00221A600023FB811DE0FC
:104BB000254B1B681846254B9847224B1B68BB604A
:104BC000214B1B681846224B98478020214B984761
:104BD000214B98471B4B1B68BA689A4201D10123AD
:104BE000BB811E4B9847FB890133FB81B7F90E301F
:104BF000042BDDDD144B1B681846144B9847114BF2
:104C000000221A60164B1B681846114B98470D4B33
:104C10001B68FF2B01D00123BB81B7F90C30002B9F
:104C20000AD1104B9847104B1B889BB201339AB2A4
:104C30000D4B1A800D4B9847034B1B681846044BCD
:104C40009847AFE78CA6072084A607208528080090
:104C5000FD29080059260800312B08004D2B0800BB
:104C600088A607202113080090A6072065130800D6
:104C700090B583B000AF78600D4B98470D4B1B6823
:104C800018460D49002200230C4CA0470346012B77
:104C900002D00B4B01221A600A4B984780200A4B26
:104CA0009847054B1B685A1C034B1A60E4E700BF8A
:104CB000312B080034A70720A0A60720691B080095
:104CC00094A607204D2B08005926080090B585B002
:104CD00000AF7860174B9847164B9847164B1A68E9
:104CE00007F108031046194600220023134CA04781
:104CF000F860134B98470346002B02D0114B01225A
:104D00001A600F4B9847FB68002BE3D0BA680E4B34
:104D10001B689A4202D00B4B01221A60094B1B6898
:104D2000012B05D0084B1B685A1C074B1A60D1E7B2
:104D3000D0E700BF312B080034A70720291E080048
:104D40004D2B080098A607209CA6072080B483B0AE
:104D500000AF01237B60164B1B889AB2154B1B8852
:104D60009A4201D100237B60134B1A68134B1B68D6
:104D70009A4201D100237B60114B1B68012B01D1AA
:104D800000237B600F4B1B68012B01D100237B604C
:104D9000074B1B889AB2074B1A80074B1A68074BC0
:104DA0001A607B6818460C37BD465DF8047B704777
:104DB00090A60720A4A607209CA60720A8A6072047
:104DC00094A6072098A6072090B587B002AF786018
:104DD0000023FB601FE0FB68013340F24D1202FB31
:104DE00003F2FB680F4900910F48114601220F4C56
:104DF000A047B860BB68002B0AD00D4B984703460C
:104E000000220092B86801211A460023094CA047ED
:104E1000FB680133FB60FA687B689A42DBD3143786
:104E2000BD4690BD394E08004C670800E5370800C4
:104E3000712C08006138080080B584B000AF78603C
:104E40007868054B98470346FB60FB681846034BA0
:104E500098471037BD4680BDA53D0800696208002F
:104E600090B589B004AF78600120284B984702467E
:104E7000274B1A60264B1B68002B02D1254B984705
:104E8000FEE7052004210022234B9847F8607B6849
:104E900000930023019300230293002303931F48F0
:104EA0001F498222FB681F4CA0470120174B9847DF
:104EB000B860002300930023019300230293002392
:104EC0000393194819498222BB68164CA047022354
:104ED0000093174B0193002302930023039315487B
:104EE0001549822200230F4CA04703230093134B44
:104EF0000193002302930023039311481149822256
:104F0000BB68084CA0471437BD4690BDA5190800E2
:104F1000C4A607209D13080019190800494F08006E
:104F200054670800D5230800DD5408005C670800BA
:104F3000C0A607203955080064670800BCA60720F2
:104F40005D5508006C67080090B587B000AF7860C9
:104F50007B687B6178698C49002201238B4CA047D8
:104F600078698B4B98470346012B02D0894B01226D
:104F70001A6007F110037869194600220023864C55
:104F8000A0470346012B02D0824B01221A607E4BC0
:104F90001A683B699A4202D07E4B01221A607869F6
:104FA0007B4B98470346002B02D07A4B01221A60B4
:104FB0007869754900220023744CA0477869744BC6
:104FC00098470346012B02D0724B01221A6007F169
:104FD000100378691946002200236F4CA04703464E
:104FE000012B02D06B4B01221A607869684B9847FD
:104FF0000346002B02D0674B01221A60624B1A68ED
:105000003B699A4202D0634B01221A6002233B6142
:105010000AE007F1100378691946002200235B4C6F
:10502000A0473B6901333B613B69042BF1D97869A7
:10503000574B98470346032B02D0564B01221A6068
:1050400001233B6107F1100378691946002201230F
:105050004E4CA04700233B6107F1100378691946C5
:1050600000220123494CA0477869494B98470346E1
:10507000052B02D0474B01221A6007F11003786913
:10508000194600220123414CA0470346002B02D0C1
:10509000404B01221A6007F110037869194600227B
:1050A00000233A4CA0470346002B02D0394B012283
:1050B0001A6000233B612FE007F10C037869194661
:1050C00000220123344CA0470346012B02D0314B70
:1050D00001221A603A69FB689A4202D02D4B0122E4
:1050E0001A60FB68DB43FB6007F10C037869194623
:1050F00000220023284CA0470346012B02D0254B59
:1051000001221A603A69FB689A4202D0214B0122BF
:105110001A603B6901333B613B69042BCCD9786948
:105120001B4B98470346002B02D01A4B01221A60F2
:105130000A233B6107F11003786919460022002316
:10514000124CA0470346012B02D0124B01221A60D9
:105150000B233B6107F110037869194600220023F5
:105160000A4CA0470346012B02D00A4B01221A60C9
:105170007869074B98470346022B02D0054B012262
:105180001A6009233B611AE0B0A60720691B0800DA
:10519000ED200800ACA60720291E080007F1100327
:1051A00078691946002201232F4CA0470346012BA2
:1051B00002D02E4B01221A603B69013B3B613B69E7
:1051C000062BEBD878692A4B98470346052B02D06B
:1051D000264B01221A6007F1100378691946002254
:1051E0000123214CA0470346002B02D01F4B012274
:1051F0001A6007F1100378691946002200231A4C3F
:10520000A0470346002B02D0184B01221A60072347
:105210003B6117E007F10C0378691946002200236F
:10522000144CA0470346012B02D0104B01221A60F8
:105230003A69FB689A4202D00C4B01221A603B6922
:1052400001333B613B690B2BE4D97869084B9847E4
:105250000346002B02D0054B01221A60064B1B6847
:105260005A1C054B1A6075E6691B0800ACA607209E
:10527000ED200800291E0800B0A6072090B583B0D5
:1052800000AF786039607868002100220023434C29
:10529000A0470346012B02D0414B01221A60414B2B
:1052A00000221A600020404B98470346002B02D092
:1052B0003B4B01221A603D4B1B6818463C4B9847FC
:1052C0000020394B98470346032B02D0344B012270
:1052D0001A6000200121374B98470020324B984735
:1052E0000346032B02D02E4B01221A60324B1B685F
:1052F00018462F4B98472B4B1B68002B02D0284B8E
:1053000001221A603868002100220023234CA047A4
:105310000346012B02D0224B01221A60786800213B
:1053200000220023254CA0470346012B02D01C4B32
:1053300001221A601B4B1B68002B02D0184B012264
:105340001A600020184B98470346032B02D0144BD9
:1053500001221A603868002100220023174CA04760
:105360000346012B02D00E4B01221A600D4B1B6825
:10537000012B02D00A4B01221A6000200A4B9847E9
:105380000346012B02D0064B01221A6000200021A7
:10539000084B98470C37BD4690BD00BF291E08003A
:1053A000ACA60720B8A60720F5260800BCA6072053
:1053B000FD29080031270800C0A60720691B080046
:1053C00090B583B000AF7860396078680021002222
:1053D00000233A4CA0470346012B02D0384B012250
:1053E0001A60384B00221A600020374B984703465A
:1053F000002B02D0324B01221A60344B1B68184636
:10540000334B98470020304B98470346032B02D07C
:105410002B4B01221A602F4B1B6818462C4B9847C8
:10542000284B1B68002B02D0254B01221A603868DC
:10543000002100220023214CA0470346012B02D06B
:105440001F4B01221A603868002100220023224CE1
:10545000A0470346012B02D0194B01221A60194BB9
:105460001B68002B02D0164B01221A600020164B3D
:1054700098470346032B02D0114B01221A6078682B
:10548000002100220023144CA0470346012B02D028
:105490000B4B01221A600B4B1B68012B02D0084BEF
:1054A00001221A600020084B98470346002B02D0C7
:1054B000034B01221A600C37BD4690BD291E08001F
:1054C000ACA60720B8A60720F5260800BCA6072032
:1054D000FD290800C0A60720691B080080B584B01C
:1054E00000AF78607B68FB6001200E4B9847B86086
:1054F000BB68002B02D10C4B9847FEE7F868B968EF
:105500000A4B98470A4B1B685A1C094B1A60F868EB
:10551000B968084B9847064B1B685A1C044B1A6025
:10552000ECE700BFA51908009D1308007D52080094
:10553000B4A60720C153080080B582B000AF7860E0
:105540000020044B9847044B1B685A1C024B1A60FE
:10555000F6E700BF85280800B8A6072090B585B0FB
:1055600000AF78607B68FB6000200E4B9847F868BE
:1055700000214FF0FF3200230B4CA0470346012BC4
:1055800002D00A4B01221A60F86800210022002391
:10559000074CA0470346012B03D0044B01221A609D
:1055A000E2E7E1E785280800291E0800ACA60720ED
:1055B000691B080080B400AF124B1A68124B1B68BD
:1055C0009A4202D1114B01221A60114B1A68114BF9
:1055D0001B689A4202D10D4B01221A600A4B1A68CD
:1055E000084B1A600B4B1A68094B1A60074B1B6873
:1055F000002B14BF00230123DBB21846BD465DF823
:10560000047B7047C8A60720B0A60720ACA60720D9
:10561000CCA60720B4A6072090B589B004AF786067
:105620000023FB8114E0B7F90E309A000C4B1344B1
:105630007A680092002201920022029200220392D4
:10564000084809498222094CA047FB890133FB81A4
:10565000B7F90E30002BE6DD1437BD4690BD00BF14
:10566000D0A607207156080074670800D5230800EB
:1056700080B586B000AF78600023FB827B683B6119
:105680007B23FB60FB6803F565334733FB60FB68F6
:105690001A469B00D31AFB60FB680D4A82FB03127B
:1056A0001A449210DB17D31AFB60FA68094B9A422E
:1056B00001D00123FB82B7F91630002B07D1064B2E
:1056C00098473B6901221A60044B9847D8E7D7E70F
:1056D000932449921B77FEFF2113080065130800ED
:1056E00080B483B000AF01237B6000237B8011E096
:1056F000B7F902200D4B53F82230002B01D10023C3
:105700007B60B7F90220094B002143F822107B8807
:1057100001337B80B7F90230002BE9DD7B68184646
:105720000C37BD465DF8047B704700BFD0A607204C
:1057300090B587B004AF78600A2002210022124B96
:1057400098470246114B1A607B680093002301932F
:1057500000230293002303930D480E4982220B4B32
:105760000D4CA0477B680093002301930023029314
:105770000023039309480A498222044B064CA047A0
:105780000C37BD4690BD00BF19190800DCA60720E4
:10579000255808007C670800D5230800A557080095
:1057A0008467080090B587B000AF78600023FB8164
:1057B00000237B6100233B6122E07B681A6807F1CC
:1057C0000E031046194600220023114CA047034641
:1057D000012B02D001237B610FE07B69002B08D1F4
:1057E0000C4B98470C4B1B685A1C0B4B1A600B4B0D
:1057F0009847FB8901339BB2FB813B6901333B61D5
:105800003B69022BD9DDC820054B9847D2E700BF82
:10581000691B080021130800D8A60720651308009B
:105820005926080090B587B000AF78600023FB824E
:1058300000233B6124E07B681A6807F10E031046E1
:10584000194600220023154CA0470346012B17D10F
:10585000FB89FA8A9A4204D001233B61FB89FB82CF
:105860000BE03B69002B08D10D4B98470D4B1B6893
:105870005A1C0C4B1A600C4B9847FB8A0133FB8275
:105880007B681B681846094B98470346002BD2D10A
:10589000B420074B984700BFF2E700BF291E08005D
:1058A00021130800D4A6072065130800ED20080086
:1058B0005926080080B483B000AF0D4B1B68002B45
:1058C00003D00C4B1B68002B02D100237B6001E04E
:1058D00001237B60064B00221A60064B00221A60EF
:1058E0007B6818460C37BD465DF8047B704700BFE7
:1058F000D4A60720D8A6072090B585B004AF042011
:105900001A4B984702461A4B1A60194B1B68002B1A
:1059100029D002230093174B019300230293002305
:1059200003931548154982220023154CA0470123F3
:105930000093144B01930023029300230393124816
:105940001249822200230E4CA0470023009300231B
:10595000019300230293002303930D480D498222F3
:105960000023074CA0470437BD4690BDA519080089
:10597000E0A60720FCA60720995908008C670800BC
:10598000D523080000A70720695A0800946708007B
:10599000095B08009C67080080B584B000AF7860A0
:1059A000294B1B681846294B98470346012B02D107
:1059B000274B01221A600023FB6011E0224B1B6879
:1059C00018460821234B98470346012B02D0204B51
:1059D00001221A601420204B9847FB680133FB60BA
:1059E000FB68092BEAD90023FB6010E014201A4B56
:1059F0009847154B1B681846144B98470346012BD4
:105A000002D0134B01221A60FB680133FB60FB6874
:105A1000092BEBD90C4B1B6818460C4B98470346D7
:105A2000012B02D10A4B01221A600C4B1B685A1C35
:105A30000A4B1A600A4B01221A600020094B984752
:105A4000074B00221A60ABE7E0A607203D1A0800CA
:105A5000E4A60720A11A080059260800F0A607208E
:105A6000E8A607208528080080B582B000AF7860DE
:105A70001C4B1B6818466FF001011B4B98470346EF
:105A8000012B1CD1194B1B68012B03D0184B012291
:105A90001A6017E0134B1B681846164B98470346CD
:105AA000012B02D0124B01221A60134B01221A6003
:105AB0000020124B9847104B00221A6002E00C4B5A
:105AC00001221A600E4B1B685A1C0E4B1B689A422F
:105AD00002D0074B01221A60094B1B685A1C084B65
